:020000040800F2
:10000000284100202902000859160008AD130008F5
:10001000551600081F040008A71A00080000000079
:100020000000000000000000000000003B0200088B
:1000300023040008000000003F0200085B160008CF
:10004000430200084302000843020008430200087C
:10005000430200084302000843020008430200086C
:10006000430200084302000843020008430200085C
:10007000430200084302000843020008430200084C
:10008000430200084302000843020008430200083C
:10009000430200084302000843020008430200082C
:1000A000430200084302000843020008430200081C
:1000B000430200084302000843020008430200080C
:1000C00043020008430200084302000843020008FC
:1000D00043020008430200084302000843020008EC
:1000E00043020008430200084302000843020008DC
:1000F00043020008430200084302000843020008CC
:1001000043020008430200084302000843020008BB
:1001100043020008430200084302000843020008AB
:10012000430200084302000843020008430200089B
:10013000430200084302000843020008430200088B
:10014000430200084302000843020008430200087B
:10015000430200084302000843020008430200086B
:10016000430200084302000843020008430200085B
:100170004302000843020008430200080000000098
:10018000430200084302000800F002F800F03CF8C7
:100190000AA090E8000C82448344AAF10107DA45E2
:1001A00001D100F031F8AFF2090EBAE80F0013F0F8
:1001B000010F18BFFB1A43F001031847541B00003E
:1001C000741B0000103A24BF78C878C1FAD85207CF
:1001D00024BF30C830C144BF04680C6070470000C1
:1001E0000023002400250026103A28BF78C1FBD840
:1001F000520728BF30C148BF0B6070471FB501F0E0
:1002000075FD1FBD10B510BD00F0CFF81146FFF70A
:10021000F5FF01F067FC00F0EDF803B4FFF7F2FF23
:1002200003BC00F0F5F80000094880470948004782
:10023000FEE7FEE7FEE7FEE7FEE7FEE7FEE7FEE796
:10024000FEE7FEE704480549054A064B70470000F3
:100250001917000889010008280100202841002002
:10026000282100202821002053EA020C00F0698098
:100270002DE9F04B4FF00006002B1FBFB3FA83F5BA
:1002800003FA05F424FA05F65E4012BF1643B2FAEB
:1002900082F502FA05F4C5F120051EBF22FA05FC1D
:1002A00044EA0C04203556EA044C4FEA144418BFC3
:1002B000641C4FF000084FF00009904271EB030CF2
:1002C00039D3002919BFB1FA81F701FA07F6B0FA5C
:1002D00080F700FA07F6C7F120071EBF20FA07FCD7
:1002E00046EA0C062037B6FBF4FCA7EB0507103FE7
:1002F00007F01F0BCBF120060CFA0BFB2CFA06F6CD
:1003000044BFB3460026202FA4BF5E464FF0000B2B
:100310005BEA060C08BF4FF0010B19EB0B09ABFBB6
:10032000027C48EB0608C01B06FB02CC0BFB03CC8F
:1003300071EB0C01C1E70B46024641464846BDE859
:10034000F08B13B54FF000004FF00001AFF30080C9
:10035000BDE81C4070474FF0000200B513469446BC
:100360009646203922BFA0E80C50A0E80C50B1F10D
:100370002001BFF4F7AF090728BFA0E80C5048BF21
:100380000CC05DF804EB890028BF40F8042B08BFBF
:10039000704748BF20F8022B11F0804F18BF00F8BB
:1003A000012B7047704770477047754600F02CF876
:1003B000AE4605006946534620F00700854618B052
:1003C00020B5FFF73FFFBDE820404FF000064FF09B
:1003D00000074FF000084FF0000B21F00701AC467A
:1003E000ACE8C009ACE8C009ACE8C009ACE8C00999
:1003F0008D46704710B50446AFF300802046BDE837
:100400001040FFF70ABF000000487047C4000020FA
:1004100001491820ABBEFEE726000200704700BF6E
:10042000FEE770477047000070B5044600F010F911
:1004300006462546681C10B104480078054400BFF4
:1004400000F006F9801BA842FAD370BD0C00002012
:10045000F8B502460B460025002400200021DCE010
:10046000012606FA01F51E6806EA0504AC4273D1BE
:100470005E68022E02D05E68122E13D1CF0802F100
:10048000200656F827004E07F70E0F26BE40B04351
:100490004F07FF0E1E69BE403043CF0802F1200611
:1004A00046F8270010684F000326BE40B0431E796F
:1004B00006F003064F00BE40304310605E68012E18
:1004C00008D05E68022E05D05E68112E02D05E68EC
:1004D000122E13D190684F000326BE40B0434F0048
:1004E000DE68BE4030439060506801268E40B043C5
:1004F0001E79C6F300168E4030435060D0684F001E
:100500000326BE40B0434F009E68BE403043D060DB
:100510005E6806F08056B6F1805F7DD100BF002690
:100520000096404E366846F480463E4F3E603E465A
:10053000366806F48046009600BF00BF3A4E8F082A
:1005400056F827008E07370F0F26BE40B043374EB0
:10055000B24202D1002624E05EE0354EB24201D123
:1005600001261EE0334EB24201D1022619E0324E7E
:10057000B24201D1032614E0304EB24201D104262A
:100580000FE02F4EB24201D105260AE02D4EB242B5
:1005900001D1062605E02C4EB24201D1072600E02B
:1005A00008268F073F0FBE4030431F4E8F0846F886
:1005B0002700264E3068A0435E6806F48036B6F504
:1005C000803F00D12043214E3060361D3068A0436B
:1005D0005E6806F40036B6F5003F00D120431B4E9E
:1005E000361D3060361D3068A0435E6806F4801604
:1005F000B6F5801F00D12043144E08363060361DFA
:100600003068A0435E6806F40016B6F5001F00D1FE
:1006100020430E4E0C363060491C1029FFF420AFE9
:10062000F8BD000044380240083801400000024094
:100630000004024000080240000C0240001002408A
:100640000014024000180240001C0240003C01401F
:10065000014800687047000004000020034800685B
:1006600003490978084401490860704704000020E4
:100670000C00002010B50D48006840F400700B49D4
:1006800008600846006840F480600860084600681A
:1006900040F480700860032000F092F8002000F021
:1006A00007F800F02BF8002010BD0000003C0240CD
:1006B00070B504460E4800784FF47A71B1FBF0F043
:1006C0000C490968B1FBF0F5284600F0C9FB08B1F8
:1006D000012070BD102C07D200222146501E00F0D0
:1006E00031F80548046001E00120F2E70020F0E75E
:1006F0000C000020100000200800002008B500BFFA
:10070000002000900E48006840F480400C490860CA
:100710000846006800F48040009000BF00BF00BFA2
:1007200000200090081F006840F08050091F0860FA
:100730000846006800F08050009000BF00BF08BD70
:10074000443802402DE9F05F80460D4616460027EA
:1007500001F0ACF9074639462A46334601F0070056
:10076000C0F1070ABAF1040F02D94FF0040A01E000
:10077000C0F1070AD14600F1040ABAF1070F02D20C
:100780004FF0000A01E0A0F1030AD4464FF0010A3D
:100790000AFA09FAAAF1010A0AEA020A0AFA0CFAA2
:1007A0004FF0010B0BFA0CFBABF1010B0BEA030B47
:1007B0004AEA0B042146404601F080F9BDE8F09F6B
:1007C00000BF00F00702064B19684FF6FF031940FF
:1007D000044B0B4343EA0221014B196000BF7047F1
:1007E0000CED00E00000FA0570B504460D460CB9AA
:1007F000012070BD5848006800F00F00A84209D2DF
:1008000055490D700846006800F00F00A84201D05D
:100810000120EEE7207800F0020002281DD12078A8
:1008200000F00400042805D14C48006840F4E05072
:100830004A490860207800F00800082805D1474898
:10084000006840F46040454908604448006820F072
:10085000F000A168084341490860207800F00100D9
:10086000A8B36068012807D13C4808380068C0F385
:100870004040B8B90120BCE76068022802D0606837
:10088000032807D1354808380068C0F3406048B9EC
:100890000120AEE7314808380068C0F3400008B9CD
:1008A0000120A6E72D48006820F003006168084396
:1008B0002A490860FFF7CCFE064609E0FFF7C8FEAC
:1008C000801B41F28831884202D9032091E707E07A
:1008D0002248006800F00C006168B0EB810FEDD198
:1008E0001D48006800F00F00A84209D91A490D7090
:1008F0000846006800F00F00A84201D0012078E708
:10090000207800F00400042807D11448006820F47F
:10091000E050E168084311490860207800F00800C1
:10092000082808D10D48006820F46040216940EA99
:10093000C1000A49086000F017F808490968C1F3C6
:100940000311074A515CC840064908600020FFF7C0
:10095000AFFE00204DE70000003C02400838024096
:10096000F61C0008100000202DE9F04700240025A7
:100970000026A1462548006800F00C0020B104289C
:1009800005D008283AD105E0DFF8849039E0DFF897
:10099000849036E01D48001F006800F03F041B48AB
:1009A000001F006800F4800078B11A481749091F39
:1009B0000968C1F38811A0FB01700146224600239B
:1009C0003846FFF751FC05460EE011480F49091F54
:1009D0000968C1F38811A0FB01700146224600237B
:1009E0003846FFF741FC05460848001F0068C0F381
:1009F0000140401C4600B5FBF6F902E0DFF810901C
:100A000000BF00BF4846BDE8F0870000083802403C
:100A10000024F400001BB700F8B504460CB901200F
:100A2000F8BD207800F00100002874D0F948006873
:100A300000F00C0004280DD0F648006800F00C000F
:100A4000082813D1F348001F006800F48000B0F5B7
:100A5000800F0BD1EF4808380068C0F340400028F1
:100A600059D06068002856D10120D9E700BF6068DE
:100A7000B0F5803F08D1E7480838006840F480307E
:100A8000E449083908601EE06068B0F5A02F0DD178
:100A9000E0480838006840F48020DE4908390860E2
:100AA0000846006840F4803008600CE0D9480838F7
:100AB000006820F48030D74908390860084600688B
:100AC00020F48020086000BF606890B1FFF7C0FD8F
:100AD000054606E0FFF7BCFD401B642801D9032052
:100AE0009EE7CC4808380068C0F340400028F1D0A9
:100AF00011E0FFF7ADFD054606E0FFF7A9FD401B3D
:100B0000642801D903208BE7C24808380068C0F385
:100B100040400028F1D1207800F0020002285FD187
:100B2000BC48006800F00C0058B1BA48006800F0FA
:100B30000C0008281CD1B748001F006800F4800092
:100B4000B0B9B44808380068C0F3400020B1E0688C
:100B5000012801D0012063E7AE480838006820F082
:100B6000F800216940EAC100AA490839086037E065
:100B7000E06800B30120A8490860FFF769FD054659
:100B800006E0FFF765FD401B022801D9032047E777
:100B9000A04808380068C0F340000028F1D09D4804
:100BA0000838006820F0F800216940EAC10099493E
:100BB0000839086014E0002097490860FFF748FDF5
:100BC000054606E0FFF744FD401B022801D903203B
:100BD00026E7904808380068C0F340000028F1D1AB
:100BE000207800F0080008282CD16069A8B1012005
:100BF0008A490860FFF72CFD054606E0FFF728FD4F
:100C0000401B022801D903200AE782486C300068A3
:100C1000C0F340000028F1D014E000207F490860B4
:100C2000FFF716FD054606E0FFF712FD401B022800
:100C300001D90320F4E677486C300068C0F3400027
:100C40000028F1D1207800F00400042870D100269B
:100C500070483830006800F0805090B900BF002024
:100C600000906C483830006840F080506949383155
:100C700008600846006800F08050009000BF00BF88
:100C800001266748006800F48070B0B964480068C5
:100C900040F4807062490860FFF7DAFC054606E020
:100CA000FFF7D6FC401B022801D90320B8E65C48B8
:100CB000006800F480700028F2D000BFA06801280E
:100CC00008D154486830006840F00100514968314B
:100CD00008601DE0A06805280DD14E486830006806
:100CE00040F004004B49683108600846006840F055
:100CF000010008600CE047486830006820F00100FF
:100D00004449683108600846006820F00400086023
:100D100000BFA068A8B1FFF79BFC054609E0FFF7FC
:100D200097FC401B41F28831884202D9032077E6C4
:100D300026E0384868300068C0F340000028EED054
:100D400013E0FFF785FC054608E0FFF781FC401B38
:100D500041F28831884201D9032061E62D4868308C
:100D60000068C0F340000028EFD1012E07D12948C8
:100D70003830006820F0805026493831086000BFC4
:100D8000A069B8B32348006800F00C0008285ED0C2
:100D9000A069022846D100201F490866FFF758FCC9
:100DA000054606E0FFF754FC401B022801D903204A
:100DB00036E6184808380068C0F340600028F1D1D2
:100DC000D4E907010843616A40EA81110122A06A5F
:100DD000C2EB500041EA00412C20005D41EA006076
:100DE0000C49091F086001200B490866FFF730FC19
:100DF000054607E02DE0FFF72BFC401B022801D938
:100E000003200DE6034808380068C0F3406000285E
:100E1000F1D01EE00838024000004742800E4742F1
:100E20000070004000200C490866FFF711FC0546E1
:100E300006E0FFF70DFC401B022801D90320EFE577
:100E400006480068C0F340600028F2D101E00120AC
:100E5000E6E50020E4E500000000474200380240DB
:100E600070B504462546681EB0F1807F01D301208D
:100E70000FE0681E4FF0E02148610F214FF0FF3076
:100E800000F01CFE00204FF0E0218861072008617F
:100E9000002070BD10B50346002200BF93F83C004F
:100EA000012801D1022010BD012083F83C0000BFC1
:100EB00022F0FF00CC6840EA040222F440708C6803
:100EC00040EA040222F480604C6840EA040222F402
:100ED00000600C6840EA040222F480500C6940EA89
:100EE000040222F400504C6940EA040222F48040DB
:100EF000CC6940EA04021868426400BF002083F80D
:100F00003C0000BF00BFCEE710B5024600BF92F81C
:100F10003C00012801D1022010BD012082F83C00D4
:100F200000BF022082F83D001068436810688468A2
:100F300023F070030868034324F0800448680443E6
:100F40001068436010688460012082F83D0000BF93
:100F5000002082F83C0000BF00BFDDE710B504466A
:100F60000CB9012010BD94F83D0028B9002084F888
:100F70003C00204600F00CF8022084F83D00211DC2
:100F8000206800F0FBFB012084F83D000020E9E729
:100F900008B5144A016891420FD100BF00210091A9
:100FA0001149096841F001010F4A116011460968B1
:100FB00001F00101009100BF13E00C4A0168914269
:100FC0000FD100BF002100910749096841F00201DB
:100FD000054A11601146096801F00201009100BF45
:100FE00000BF08BD00000140443802400004014039
:100FF0000146022081F83D000868806800F0070281
:10100000062A05D00868006840F001000B681860E7
:10101000012081F83D00002070472DE9F041044691
:101020000D4600BF94F83C00012802D10220BDE823
:10103000F081012084F83C0000BF022084F83D00CC
:101040002068866826F0770626F47F46206886604A
:101050002868502833D00CDC202850D004DC00282D
:101060004BD0102851D149E0302849D040284CD1EC
:1010700039E060282DD0702807D0B0F5805F03D00C
:10108000B0F5005F41D10DE040E0D5E902136A6898
:10109000206800F0F0FB2068866846F0770620683C
:1010A000866033E0D5E902136A68206800F0E3FB4C
:1010B0002068806840F480402168886026E0EA6803
:1010C0006968206800F0C8FC5021206800F0DEFB51
:1010D0001CE0EA686968206800F0D1FC60212068A3
:1010E00000F0D4FB12E0EA686968206800F0B4FC04
:1010F0004021206800F0CAFB08E000BF00BF00BF2D
:101100002968206800F0C2FB00E000BF00BF01209A
:1011100084F83D0000BF002084F83C0000BF00BF01
:1011200085E7000010B586B00446142101A8FFF73A
:1011300012F93249206888421FD100BF0020009078
:101140002F48006840F010002D49086008460068EC
:1011500000F01000009000BF00BF4FF4D440019099
:1011600002200290012003900220049001200590AB
:1011700001A92448FFF76CF93EE023492068884222
:101180003AD100BF002000901D48006840F48070F4
:101190001B4908600846006800F48070009000BF9A
:1011A00000BF00BF002000900846006840F0040027
:1011B00008600846006800F00400009000BF00BF0F
:1011C000C020019002200290012003900220049090
:1011D0000320059001A90D48FFF73AF9402001903E
:1011E0000220029001200390022004900320059029
:1011F00001A90748FFF72CF906B010BD0000014017
:10120000303802400010024000040140002002403B
:101210000008024070B504460D46164600BF94F81B
:101220003C00012801D1022070BD012084F83C005F
:1012300000BF022084F83D0036B1042E1BD0082EDA
:1012400031D00C2E5ED145E02946206800F028FB05
:101250002068806940F00800216888612068806902
:1012600020F00400216888612068806929690843AA
:101270002168886147E02946206800F049FB206822
:10128000806940F40060216888612068806920F4EA
:1012900080602168886120688069296940EA0120AE
:1012A000216888612FE02946206800F06FFB2068E4
:1012B000C06940F008002168C8612068C06920F05A
:1012C00004002168C8612068C06929690843216851
:1012D000C86118E02946206800F094FB2068C069C6
:1012E00040F400602168C8612068C06920F4806013
:1012F0002168C8612068C069296940EA0120216825
:10130000C86100E000BF00BF012084F83D0000BFBD
:10131000002084F83C0000BF00BF85E710B50446FC
:101320000CB9012010BD94F83D0028B9002084F8C4
:101330003C00204600F00CF8022084F83D00211DFE
:10134000206800F01BFA012084F83D000020E9E746
:101350007047000070B504460E46012231462068F1
:1013600000F078FA0F492068884203D00E492068BF
:10137000884201D1012000E0002028B12068406CA3
:1013800040F40040216848642068806800F0070548
:10139000062D05D02068006840F001002168086033
:1013A000002070BD000001400004014000BFFEE7C6
:1013B00008B500BF002000902448006840F00100FC
:1013C000224908600846006800F00100009000BF54
:1013D00000BF00BF002000900846006840F4807005
:1013E00008600846006800F48070009000BF00BFED
:1013F00000BF002000900846006840F080000860B0
:101400000846006800F08000009000BF00BF00BFE9
:10141000002000900846006840F00400086008467C
:10142000006800F00400009000BF00BF00BF002073
:1014300000900846006840F0100008600846006808
:1014400000F01000009000BF00BF08BD303802401F
:1014500000B595B0002011901290139014900F9049
:1014600010901C2108A8FEF776FF20216846FEF7A1
:1014700072FF384838490860A72048600021364884
:10148000816044F61F61C160002101614161816199
:10149000FFF764FD08B1FEF7C5FF4FF480501190CF
:1014A00011A92D48FFF7B9FD08B1FEF7BBFF2A4887
:1014B000FFF734FF08B1FEF7B5FF00200F90109042
:1014C0000FA92548FFF720FD08B1FEF7ABFF60200C
:1014D000089040F2DC50099000200A900B900C908C
:1014E0000D900E90002208A91B48FFF793FE08B14B
:1014F000FEF798FF042208A91748FFF78BFE08B1F2
:10150000FEF790FF082208A91348FFF783FE08B1F1
:10151000FEF788FF0C2208A90F48FFF77BFE08B1F1
:10152000FEF780FF0020009001900290039004904D
:101530004FF4005005900020079069460648FFF7D9
:10154000A9FC08B1FEF76EFF0348FFF7EBFD15B0ED
:1015500000BD0000000001404400002000B595B02F
:10156000002011901290139014900F9010901C2155
:1015700008A8FEF7F0FE20216846FEF7ECFE33488F
:1015800033490860A720486000213148816044F653
:101590001F61C1600021016141618161FFF7DEFCD3
:1015A00008B1FEF73FFF4FF48050119011A9284871
:1015B000FFF733FD08B1FEF735FF2548FFF7AEFE14
:1015C00008B1FEF72FFF00200F9010900FA92048C0
:1015D000FFF79AFC08B1FEF725FF60200890002075
:1015E00009900A900B900C900D900E90002208A983
:1015F0001748FFF70FFE08B1FEF714FF042208A9F1
:101600001348FFF707FE08B1FEF70CFF082208A9F0
:101610000F48FFF7FFFD08B1FEF704FF0020009020
:1016200001900290039004904FF400500590002028
:10163000079069460648FFF72DFC08B1FEF7F2FE59
:101640000348FFF76FFD15B000BD00000004014026
:101650008400002000BFFEE7704710B5FEF7FEFFD4
:1016600010BD000000B593B0302107A8FEF773FE4F
:10167000142102A8FEF76FFE00BF0020019024484D
:10168000006840F08050224908600846006800F079
:101690008050019000BF00BF00BF002001901D4896
:1016A000006840F480401B4908600846006800F468
:1016B0008040019000BF00BF012007900004089007
:1016C00002200D9041050E9106210F91A821109145
:1016D000022111910721129107A8FFF79DF908B186
:1016E000FEF7A0FE0F20029002200390002004903D
:1016F0004FF4A05005904FF480500690052102A8A9
:10170000FFF772F808B1FEF78DFE13B000BD0000C0
:1017100040380240007000401448006840F47000F7
:10172000124908601248006840F001001049086042
:1017300000200F49083108600D4800680D49084035
:101740000B4908600C48091D0860081F006820F458
:101750008020091F0860002005490C3108604FF007
:1017600000600249803908607047000088ED00E0A1
:1017700000380240FFFFF6FE1030002410B502686A
:10178000294B98420ED0B0F1804F0BD0274B984296
:1017900008D0274B984205D0264B984202D0264BC2
:1017A000984203D122F070024B681A431E4B9842B4
:1017B00020D0B0F1804F1DD01C4B98421AD01C4B4A
:1017C000984217D01B4B984214D01B4B984211D013
:1017D0001A4B98420ED01A4B98420BD0194B984294
:1017E00008D0194B984205D0184B984202D0184B9C
:1017F000984203D122F44072CB681A4322F080034E
:101800004C6943EA040202608B68C3620B6883621E
:10181000054B984202D0084B984201D10B690363F3
:101820000123436110BD000000000140000400409E
:1018300000080040000C004000040140004001404E
:10184000004401400048014000180040001C0040D6
:101850000020004030B501F01F05012404FA05F313
:10186000046A9C430462046A01F01F0502FA05F54C
:101870002C43046230BD30B50C46816821F47F41B1
:1018800042EA032525432943816030BD0A46816829
:1018900021F0700142F00703194381607047000096
:1018A00030B5056A25F001050562026A436884695E
:1018B00024F0700424F003040D682C4322F002028B
:1018C0008D682A43104DA84200D103E00F4DA84275
:1018D00006D100BF22F00802CD682A4322F004029C
:1018E000094DA84202D0094DA84207D123F48073C4
:1018F00023F400734D692B438D692B43436084614E
:101900004D684563026230BD0000014000040140A3
:1019100030B5056A25F010050562026A43688469DE
:1019200024F4E04424F440740D6844EA052422F0D1
:1019300020028D6842EA0512124DA84200D103E050
:10194000114DA84207D100BF22F08002CD6842EAC3
:10195000051222F040020B4DA84202D00A4DA842C7
:1019600009D123F4806323F400634D6943EA8503BE
:101970008D6943EA8503436084614D688563026233
:1019800030BD0000000001400004014030B5056A90
:1019900025F480750562026A4368C46924F0700406
:1019A00024F003040D682C4322F400728D6842EA8F
:1019B0000522124DA84200D103E0114DA84207D1E3
:1019C00000BF22F40062CD6842EA052222F4806260
:1019D0000A4DA84202D00A4DA84209D123F48053EF
:1019E00023F400534D6943EA05138D6943EA051357
:1019F0004360C4614D68C563026230BD00000140B0
:101A00000004014030B5056A25F480550562036A7B
:101A10004468C26922F4E04222F440720D6842EA4E
:101A2000052223F400538D6843EA0533084DA8428C
:101A300002D0084DA84204D124F480444D6944EA00
:101A400085144460C2614D680564036230BD0000C6
:101A5000000001400004014030B50B461446026A04
:101A6000056A25F001050562816921F0F00141EA6E
:101A7000041122F00A021A438161026230BD30B5BE
:101A80000B461446056A25F0100505628169026A55
:101A900021F4704141EA043122F0A00242EA03122B
:101AA0008161026230BD00BFFEE7000002480068AD
:101AB000C0F30220704700000CED00E010B50028D4
:101AC00004DB0A07130E054A135406E00A07140E36
:101AD000034A00F00F031B1FD45410BD00E400E0C4
:101AE00018ED00E0FEF7C6FDFFF7BCFDFFF760FC58
:101AF000FFF734FDFFF7ACFC3548FFF779FA00211A
:101B00003348FFF727FC4FF4FA60FEF78DFCDFED5A
:101B1000311A9FED311ADFED310A9FED310A31485C
:101B200000F0CEF853E03048006830B1012812D000
:101B300002281FD003283BD12BE0DFED260A9FEDC2
:101B4000250A284800F056F826484069012801D1A6
:101B5000254908602CE0DFED200A9FED1E0A214890
:101B600000F048F81F484069012802D102201E49B0
:101B700008601DE0DFED170A9FED1C0A194800F010
:101B800039F818484069012802D103201649086035
:101B90000EE0DFED110A9FED160A124800F02AF858
:101BA00010484069012802D100200F49086000BF99
:101BB00000BF0C48406800EE100ABCEEC00A10EEF0
:101BC000100A0349096848630A20FEF72DFCAAE7BA
:101BD000440000200000FA4300401C450080BB4444
:101BE0000BD7233C140000200000002000007A44A2
:101BF0000000FA4410EE101A0160416801EE101A5C
:101C000031EE601AB5EEC01AF1EE10FA1ED241683C
:101C100001EE101A016801EE901A016902EE101A25
:101C200001EE821A11EE101A4160416801EE101A9D
:101C3000B4EEE01AF1EE10FA05DD10EE901A4160F4
:101C40000121416120E0002141611DE0416801EE78
:101C5000101A016801EE901A016902EE101A01EEE5
:101C6000C21A11EE101A4160416801EE101AB4EE6A
:101C7000E01AF1EE10FA05D210EE901A416001213F
:101C8000416101E000214161416801EE101AC16823
:101C900001EE901AB4EEE11AF1EE10FA02DDC1681D
:101CA00041600CE0416801EE101A816801EE901A63
:101CB000B4EEE11AF1EE10FA01D28168416070478A
:101CC00011EE101AC16011EE901A816010EE101A18
:101CD0000161002141619FED042A12EE101A01609A
:101CE00010EE901A41607047000000004FF0407005
:101CF000E1EE100A70470000000000000000010241
:101D000003040607080900000000010203040000A4
:101D1000301D00080000002014000000C40100086D
:101D2000441D00081400002014410000E0010008D8
:101D30000000000000000000100000000100000092
:041D40000024F40087
:040000050800018965
:00000001FF
